{
  "_format": "hh-sol-artifact-1",
  "contractName": "RandomIpfsNft",
  "sourceName": "contracts/RandomIpfs.sol",
  "abi": [
    {
      "inputs": [
        {
          "internalType": "address",
          "name": "vrfCoordinatorV2",
          "type": "address"
        },
        {
          "internalType": "uint64",
          "name": "subscriptionId",
          "type": "uint64"
        },
        {
          "internalType": "bytes32",
          "name": "gasLane",
          "type": "bytes32"
        },
        {
          "internalType": "uint256",
          "name": "mintFee",
          "type": "uint256"
        },
        {
          "internalType": "uint32",
          "name": "callbackGasLimit",
          "type": "uint32"
        },
        {
          "internalType": "string[3]",
          "name": "dogTokenUris",
          "type": "string[3]"
        }
      ],
      "stateMutability": "nonpayable",
      "type": "constructor"
    },
    {
      "inputs": [
        {
          "internalType": "address",
          "name": "have",
          "type": "address"
        },
        {
          "internalType": "address",
          "name": "want",
          "type": "address"
        }
      ],
      "name": "OnlyCoordinatorCanFulfill",
      "type": "error"
    },
    {
      "inputs": [],
      "name": "RandomIpfsNft__AlreadyInitialized",
      "type": "error"
    },
    {
      "inputs": [],
      "name": "RandomIpfsNft__NeedMoreETHSent",
      "type": "error"
    },
    {
      "inputs": [],
      "name": "RandomIpfsNft__RangeOutOfBounds",
      "type": "error"
    },
    {
      "inputs": [],
      "name": "RandomIpfsNft__TransferFailed",
      "type": "error"
    },
    {
      "anonymous": false,
      "inputs": [
        {
          "indexed": true,
          "internalType": "address",
          "name": "owner",
          "type": "address"
        },
        {
          "indexed": true,
          "internalType": "address",
          "name": "approved",
          "type": "address"
        },
        {
          "indexed": true,
          "internalType": "uint256",
          "name": "tokenId",
          "type": "uint256"
        }
      ],
      "name": "Approval",
      "type": "event"
    },
    {
      "anonymous": false,
      "inputs": [
        {
          "indexed": true,
          "internalType": "address",
          "name": "owner",
          "type": "address"
        },
        {
          "indexed": true,
          "internalType": "address",
          "name": "operator",
          "type": "address"
        },
        {
          "indexed": false,
          "internalType": "bool",
          "name": "approved",
          "type": "bool"
        }
      ],
      "name": "ApprovalForAll",
      "type": "event"
    },
    {
      "anonymous": false,
      "inputs": [
        {
          "indexed": false,
          "internalType": "enum RandomIpfsNft.Breed",
          "name": "breed",
          "type": "uint8"
        },
        {
          "indexed": false,
          "internalType": "address",
          "name": "minter",
          "type": "address"
        }
      ],
      "name": "NftMinted",
      "type": "event"
    },
    {
      "anonymous": false,
      "inputs": [
        {
          "indexed": true,
          "internalType": "uint256",
          "name": "requestId",
          "type": "uint256"
        },
        {
          "indexed": false,
          "internalType": "address",
          "name": "requester",
          "type": "address"
        }
      ],
      "name": "NftRequested",
      "type": "event"
    },
    {
      "anonymous": false,
      "inputs": [
        {
          "indexed": true,
          "internalType": "address",
          "name": "previousOwner",
          "type": "address"
        },
        {
          "indexed": true,
          "internalType": "address",
          "name": "newOwner",
          "type": "address"
        }
      ],
      "name": "OwnershipTransferred",
      "type": "event"
    },
    {
      "anonymous": false,
      "inputs": [
        {
          "indexed": true,
          "internalType": "address",
          "name": "from",
          "type": "address"
        },
        {
          "indexed": true,
          "internalType": "address",
          "name": "to",
          "type": "address"
        },
        {
          "indexed": true,
          "internalType": "uint256",
          "name": "tokenId",
          "type": "uint256"
        }
      ],
      "name": "Transfer",
      "type": "event"
    },
    {
      "inputs": [
        {
          "internalType": "address",
          "name": "to",
          "type": "address"
        },
        {
          "internalType": "uint256",
          "name": "tokenId",
          "type": "uint256"
        }
      ],
      "name": "approve",
      "outputs": [],
      "stateMutability": "nonpayable",
      "type": "function"
    },
    {
      "inputs": [
        {
          "internalType": "address",
          "name": "owner",
          "type": "address"
        }
      ],
      "name": "balanceOf",
      "outputs": [
        {
          "internalType": "uint256",
          "name": "",
          "type": "uint256"
        }
      ],
      "stateMutability": "view",
      "type": "function"
    },
    {
      "inputs": [
        {
          "internalType": "uint256",
          "name": "tokenId",
          "type": "uint256"
        }
      ],
      "name": "getApproved",
      "outputs": [
        {
          "internalType": "address",
          "name": "",
          "type": "address"
        }
      ],
      "stateMutability": "view",
      "type": "function"
    },
    {
      "inputs": [
        {
          "internalType": "uint256",
          "name": "moddedRng",
          "type": "uint256"
        }
      ],
      "name": "getBreedFromModdedRng",
      "outputs": [
        {
          "internalType": "enum RandomIpfsNft.Breed",
          "name": "",
          "type": "uint8"
        }
      ],
      "stateMutability": "pure",
      "type": "function"
    },
    {
      "inputs": [],
      "name": "getChanceArray",
      "outputs": [
        {
          "internalType": "uint256[3]",
          "name": "",
          "type": "uint256[3]"
        }
      ],
      "stateMutability": "pure",
      "type": "function"
    },
    {
      "inputs": [
        {
          "internalType": "uint256",
          "name": "index",
          "type": "uint256"
        }
      ],
      "name": "getDogTokenUris",
      "outputs": [
        {
          "internalType": "string",
          "name": "",
          "type": "string"
        }
      ],
      "stateMutability": "view",
      "type": "function"
    },
    {
      "inputs": [],
      "name": "getInitialized",
      "outputs": [
        {
          "internalType": "bool",
          "name": "",
          "type": "bool"
        }
      ],
      "stateMutability": "view",
      "type": "function"
    },
    {
      "inputs": [],
      "name": "getMintFee",
      "outputs": [
        {
          "internalType": "uint256",
          "name": "",
          "type": "uint256"
        }
      ],
      "stateMutability": "view",
      "type": "function"
    },
    {
      "inputs": [],
      "name": "getTokenCounter",
      "outputs": [
        {
          "internalType": "uint256",
          "name": "",
          "type": "uint256"
        }
      ],
      "stateMutability": "view",
      "type": "function"
    },
    {
      "inputs": [
        {
          "internalType": "address",
          "name": "owner",
          "type": "address"
        },
        {
          "internalType": "address",
          "name": "operator",
          "type": "address"
        }
      ],
      "name": "isApprovedForAll",
      "outputs": [
        {
          "internalType": "bool",
          "name": "",
          "type": "bool"
        }
      ],
      "stateMutability": "view",
      "type": "function"
    },
    {
      "inputs": [],
      "name": "name",
      "outputs": [
        {
          "internalType": "string",
          "name": "",
          "type": "string"
        }
      ],
      "stateMutability": "view",
      "type": "function"
    },
    {
      "inputs": [],
      "name": "owner",
      "outputs": [
        {
          "internalType": "address",
          "name": "",
          "type": "address"
        }
      ],
      "stateMutability": "view",
      "type": "function"
    },
    {
      "inputs": [
        {
          "internalType": "uint256",
          "name": "tokenId",
          "type": "uint256"
        }
      ],
      "name": "ownerOf",
      "outputs": [
        {
          "internalType": "address",
          "name": "",
          "type": "address"
        }
      ],
      "stateMutability": "view",
      "type": "function"
    },
    {
      "inputs": [
        {
          "internalType": "uint256",
          "name": "requestId",
          "type": "uint256"
        },
        {
          "internalType": "uint256[]",
          "name": "randomWords",
          "type": "uint256[]"
        }
      ],
      "name": "rawFulfillRandomWords",
      "outputs": [],
      "stateMutability": "nonpayable",
      "type": "function"
    },
    {
      "inputs": [],
      "name": "renounceOwnership",
      "outputs": [],
      "stateMutability": "nonpayable",
      "type": "function"
    },
    {
      "inputs": [],
      "name": "requestNft",
      "outputs": [
        {
          "internalType": "uint256",
          "name": "requestId",
          "type": "uint256"
        }
      ],
      "stateMutability": "payable",
      "type": "function"
    },
    {
      "inputs": [
        {
          "internalType": "uint256",
          "name": "",
          "type": "uint256"
        }
      ],
      "name": "s_requestIdToSender",
      "outputs": [
        {
          "internalType": "address",
          "name": "",
          "type": "address"
        }
      ],
      "stateMutability": "view",
      "type": "function"
    },
    {
      "inputs": [
        {
          "internalType": "address",
          "name": "from",
          "type": "address"
        },
        {
          "internalType": "address",
          "name": "to",
          "type": "address"
        },
        {
          "internalType": "uint256",
          "name": "tokenId",
          "type": "uint256"
        }
      ],
      "name": "safeTransferFrom",
      "outputs": [],
      "stateMutability": "nonpayable",
      "type": "function"
    },
    {
      "inputs": [
        {
          "internalType": "address",
          "name": "from",
          "type": "address"
        },
        {
          "internalType": "address",
          "name": "to",
          "type": "address"
        },
        {
          "internalType": "uint256",
          "name": "tokenId",
          "type": "uint256"
        },
        {
          "internalType": "bytes",
          "name": "data",
          "type": "bytes"
        }
      ],
      "name": "safeTransferFrom",
      "outputs": [],
      "stateMutability": "nonpayable",
      "type": "function"
    },
    {
      "inputs": [
        {
          "internalType": "address",
          "name": "operator",
          "type": "address"
        },
        {
          "internalType": "bool",
          "name": "approved",
          "type": "bool"
        }
      ],
      "name": "setApprovalForAll",
      "outputs": [],
      "stateMutability": "nonpayable",
      "type": "function"
    },
    {
      "inputs": [
        {
          "internalType": "bytes4",
          "name": "interfaceId",
          "type": "bytes4"
        }
      ],
      "name": "supportsInterface",
      "outputs": [
        {
          "internalType": "bool",
          "name": "",
          "type": "bool"
        }
      ],
      "stateMutability": "view",
      "type": "function"
    },
    {
      "inputs": [],
      "name": "symbol",
      "outputs": [
        {
          "internalType": "string",
          "name": "",
          "type": "string"
        }
      ],
      "stateMutability": "view",
      "type": "function"
    },
    {
      "inputs": [
        {
          "internalType": "uint256",
          "name": "tokenId",
          "type": "uint256"
        }
      ],
      "name": "tokenURI",
      "outputs": [
        {
          "internalType": "string",
          "name": "",
          "type": "string"
        }
      ],
      "stateMutability": "view",
      "type": "function"
    },
    {
      "inputs": [
        {
          "internalType": "address",
          "name": "from",
          "type": "address"
        },
        {
          "internalType": "address",
          "name": "to",
          "type": "address"
        },
        {
          "internalType": "uint256",
          "name": "tokenId",
          "type": "uint256"
        }
      ],
      "name": "transferFrom",
      "outputs": [],
      "stateMutability": "nonpayable",
      "type": "function"
    },
    {
      "inputs": [
        {
          "internalType": "address",
          "name": "newOwner",
          "type": "address"
        }
      ],
      "name": "transferOwnership",
      "outputs": [],
      "stateMutability": "nonpayable",
      "type": "function"
    },
    {
      "inputs": [],
      "name": "withdraw",
      "outputs": [],
      "stateMutability": "nonpayable",
      "type": "function"
    }
  ],
  "bytecode": "0x6101406040523480156200001257600080fd5b506040516200461738038062004617833981810160405281019062000038919062000656565b856040518060400160405280600f81526020017f52616e646f6d2049504653204e465400000000000000000000000000000000008152506040518060400160405280600381526020017f52494e00000000000000000000000000000000000000000000000000000000008152508160009080519060200190620000bd9291906200031d565b508060019080519060200190620000d69291906200031d565b5050508073ffffffffffffffffffffffffffffffffffffffff1660808173ffffffffffffffffffffffffffffffffffffffff1660601b81525050506200013162000125620001d560201b60201c565b620001dd60201b60201c565b8573ffffffffffffffffffffffffffffffffffffffff1660a08173ffffffffffffffffffffffffffffffffffffffff1660601b815250508360e081815250508467ffffffffffffffff1660c08167ffffffffffffffff1660c01b815250508261012081815250508163ffffffff166101008163ffffffff1660e01b81525050620001c181620002a360201b60201c565b6000600881905550505050505050620009b1565b600033905090565b6000600760009054906101000a900473ffffffffffffffffffffffffffffffffffffffff16905081600760006101000a81548173ffffffffffffffffffffffffffffffffffffffff021916908373ffffffffffffffffffffffffffffffffffffffff1602179055508173ffffffffffffffffffffffffffffffffffffffff168173ffffffffffffffffffffffffffffffffffffffff167f8be0079c531659141344cd1fd0a4f28419497f9722a3daafe3b4186f6b6457e060405160405180910390a35050565b600a60009054906101000a900460ff1615620002eb576040517fddf8bf7000000000000000000000000000000000000000000000000000000000815260040160405180910390fd5b806009906003620002fe929190620003ae565b506001600a60006101000a81548160ff02191690831515021790555050565b8280546200032b906200083b565b90600052602060002090601f0160209004810192826200034f57600085556200039b565b82601f106200036a57805160ff19168380011785556200039b565b828001600101855582156200039b579182015b828111156200039a5782518255916020019190600101906200037d565b5b509050620003aa919062000415565b5090565b82805482825590600052602060002090810192821562000402579160200282015b8281111562000401578251829080519060200190620003f09291906200031d565b5091602001919060010190620003cf565b5b50905062000411919062000434565b5090565b5b808211156200043057600081600090555060010162000416565b5090565b5b808211156200045857600081816200044e91906200045c565b5060010162000435565b5090565b5080546200046a906200083b565b6000825580601f106200047e57506200049f565b601f0160209004906000526020600020908101906200049e919062000415565b5b50565b6000620004b9620004b3846200073a565b62000711565b90508082856020860282011115620004d657620004d56200090a565b5b60005b858110156200052b57815167ffffffffffffffff8111156200050057620004ff62000905565b5b8086016200050f8982620005de565b85526020850194506020840193505050600181019050620004d9565b5050509392505050565b60006200054c620005468462000763565b62000711565b9050828152602081018484840111156200056b576200056a6200090f565b5b6200057884828562000805565b509392505050565b60008151905062000591816200092f565b92915050565b600082601f830112620005af57620005ae62000905565b5b6003620005be848285620004a2565b91505092915050565b600081519050620005d88162000949565b92915050565b600082601f830112620005f657620005f562000905565b5b81516200060884826020860162000535565b91505092915050565b600081519050620006228162000963565b92915050565b60008151905062000639816200097d565b92915050565b600081519050620006508162000997565b92915050565b60008060008060008060c0878903121562000676576200067562000919565b5b60006200068689828a0162000580565b96505060206200069989828a016200063f565b9550506040620006ac89828a01620005c7565b9450506060620006bf89828a0162000611565b9350506080620006d289828a0162000628565b92505060a087015167ffffffffffffffff811115620006f657620006f562000914565b5b6200070489828a0162000597565b9150509295509295509295565b60006200071d62000730565b90506200072b828262000871565b919050565b6000604051905090565b600067ffffffffffffffff821115620007585762000757620008d6565b5b602082029050919050565b600067ffffffffffffffff821115620007815762000780620008d6565b5b6200078c826200091e565b9050602081019050919050565b6000620007a682620007b7565b9050919050565b6000819050919050565b600073ffffffffffffffffffffffffffffffffffffffff82169050919050565b6000819050919050565b600063ffffffff82169050919050565b600067ffffffffffffffff82169050919050565b60005b838110156200082557808201518184015260208101905062000808565b8381111562000835576000848401525b50505050565b600060028204905060018216806200085457607f821691505b602082108114156200086b576200086a620008a7565b5b50919050565b6200087c826200091e565b810181811067ffffffffffffffff821117156200089e576200089d620008d6565b5b80604052505050565b7f4e487b7100000000000000000000000000000000000000000000000000000000600052602260045260246000fd5b7f4e487b7100000000000000000000000000000000000000000000000000000000600052604160045260246000fd5b600080fd5b600080fd5b600080fd5b600080fd5b600080fd5b6000601f19601f8301169050919050565b6200093a8162000799565b81146200094657600080fd5b50565b6200095481620007ad565b81146200096057600080fd5b50565b6200096e81620007d7565b81146200097a57600080fd5b50565b6200098881620007e1565b81146200099457600080fd5b50565b620009a281620007f1565b8114620009ae57600080fd5b50565b60805160601c60a05160601c60c05160c01c60e0516101005160e01c61012051613bfc62000a1b60003960008181610d450152610f3e0152600061101801526000610fd401526000610ff501526000610f98015260008181610917015261096b0152613bfc6000f3fe6080604052600436106101815760003560e01c8063715018a6116100d1578063a51cccf31161008a578063c87b56dd11610064578063c87b56dd14610575578063e985e9c5146105b2578063ee89dab4146105ef578063f2fde38b1461061a57610181565b8063a51cccf3146104f1578063aa1524911461052e578063b88d4fde1461054c57610181565b8063715018a6146103f35780637a5caab31461040a5780638da5cb5b1461043557806395d89b4114610460578063a22cb4651461048b578063a36f573b146104b457610181565b80633af259751161013e5780635dacf5f4116101185780635dacf5f4146103235780636352211e1461034e5780636e02007d1461038b57806370a08231146103b657610181565b80633af25975146102a65780633ccfd60b146102e357806342842e0e146102fa57610181565b806301ffc9a71461018657806306fdde03146101c3578063081812fc146101ee578063095ea7b31461022b5780631fe543e31461025457806323b872dd1461027d575b600080fd5b34801561019257600080fd5b506101ad60048036038101906101a89190612ab7565b610643565b6040516101ba9190613051565b60405180910390f35b3480156101cf57600080fd5b506101d8610725565b6040516101e59190613103565b60405180910390f35b3480156101fa57600080fd5b5061021560048036038101906102109190612b11565b6107b7565b6040516102229190612fa6565b60405180910390f35b34801561023757600080fd5b50610252600480360381019061024d9190612a77565b6107fd565b005b34801561026057600080fd5b5061027b60048036038101906102769190612b6b565b610915565b005b34801561028957600080fd5b506102a4600480360381019061029f9190612961565b6109d5565b005b3480156102b257600080fd5b506102cd60048036038101906102c89190612b11565b610a35565b6040516102da9190613103565b60405180910390f35b3480156102ef57600080fd5b506102f8610ae5565b005b34801561030657600080fd5b50610321600480360381019061031c9190612961565b610b99565b005b34801561032f57600080fd5b50610338610bb9565b6040516103459190613036565b60405180910390f35b34801561035a57600080fd5b5061037560048036038101906103709190612b11565b610be4565b6040516103829190612fa6565b60405180910390f35b34801561039757600080fd5b506103a0610c6b565b6040516103ad91906132e5565b60405180910390f35b3480156103c257600080fd5b506103dd60048036038101906103d891906128f4565b610c75565b6040516103ea91906132e5565b60405180910390f35b3480156103ff57600080fd5b50610408610d2d565b005b34801561041657600080fd5b5061041f610d41565b60405161042c91906132e5565b60405180910390f35b34801561044157600080fd5b5061044a610d69565b6040516104579190612fa6565b60405180910390f35b34801561046c57600080fd5b50610475610d93565b6040516104829190613103565b60405180910390f35b34801561049757600080fd5b506104b260048036038101906104ad9190612a37565b610e25565b005b3480156104c057600080fd5b506104db60048036038101906104d69190612b11565b610e3b565b6040516104e89190612fa6565b60405180910390f35b3480156104fd57600080fd5b5061051860048036038101906105139190612b11565b610e6e565b60405161052591906130bf565b60405180910390f35b610536610f3a565b60405161054391906132e5565b60405180910390f35b34801561055857600080fd5b50610573600480360381019061056e91906129b4565b61113a565b005b34801561058157600080fd5b5061059c60048036038101906105979190612b11565b61119c565b6040516105a99190613103565b60405180910390f35b3480156105be57600080fd5b506105d960048036038101906105d49190612921565b6112af565b6040516105e69190613051565b60405180910390f35b3480156105fb57600080fd5b50610604611343565b6040516106119190613051565b60405180910390f35b34801561062657600080fd5b50610641600480360381019061063c91906128f4565b61135a565b005b60007f80ac58cd000000000000000000000000000000000000000000000000000000007bffffffffffffffffffffffffffffffffffffffffffffffffffffffff1916827bffffffffffffffffffffffffffffffffffffffffffffffffffffffff1916148061070e57507f5b5e139f000000000000000000000000000000000000000000000000000000007bffffffffffffffffffffffffffffffffffffffffffffffffffffffff1916827bffffffffffffffffffffffffffffffffffffffffffffffffffffffff1916145b8061071e575061071d826113de565b5b9050919050565b6060600080546107349061359e565b80601f01602080910402602001604051908101604052809291908181526020018280546107609061359e565b80156107ad5780601f10610782576101008083540402835291602001916107ad565b820191906000526020600020905b81548152906001019060200180831161079057829003601f168201915b5050505050905090565b60006107c282611448565b6004600083815260200190815260200160002060009054906101000a900473ffffffffffffffffffffffffffffffffffffffff169050919050565b600061080882610be4565b90508073ffffffffffffffffffffffffffffffffffffffff168373ffffffffffffffffffffffffffffffffffffffff161415610879576040517f08c379a0000000000000000000000000000000000000000000000000000000008152600401610870906132a5565b60405180910390fd5b8073ffffffffffffffffffffffffffffffffffffffff16610898611493565b73ffffffffffffffffffffffffffffffffffffffff1614806108c757506108c6816108c1611493565b6112af565b5b610906576040517f08c379a00000000000000000000000000000000000000000000000000000000081526004016108fd906132c5565b60405180910390fd5b610910838361149b565b505050565b7f000000000000000000000000000000000000000000000000000000000000000073ffffffffffffffffffffffffffffffffffffffff163373ffffffffffffffffffffffffffffffffffffffff16146109c757337f00000000000000000000000000000000000000000000000000000000000000006040517f1cf993f40000000000000000000000000000000000000000000000000000000081526004016109be929190612fc1565b60405180910390fd5b6109d18282611554565b5050565b6109e66109e0611493565b826116ee565b610a25576040517f08c379a0000000000000000000000000000000000000000000000000000000008152600401610a1c90613125565b60405180910390fd5b610a30838383611783565b505050565b606060098281548110610a4b57610a4a613737565b5b906000526020600020018054610a609061359e565b80601f0160208091040260200160405190810160405280929190818152602001828054610a8c9061359e565b8015610ad95780601f10610aae57610100808354040283529160200191610ad9565b820191906000526020600020905b815481529060010190602001808311610abc57829003601f168201915b50505050509050919050565b610aed611a7d565b600047905060003373ffffffffffffffffffffffffffffffffffffffff1682604051610b1890612f91565b60006040518083038185875af1925050503d8060008114610b55576040519150601f19603f3d011682016040523d82523d6000602084013e610b5a565b606091505b5050905080610b95576040517fca7e25b700000000000000000000000000000000000000000000000000000000815260040160405180910390fd5b5050565b610bb48383836040518060200160405280600081525061113a565b505050565b610bc16126a3565b6040518060600160405280600a8152602001602881526020016064815250905090565b600080610bf083611afb565b9050600073ffffffffffffffffffffffffffffffffffffffff168173ffffffffffffffffffffffffffffffffffffffff161415610c62576040517f08c379a0000000000000000000000000000000000000000000000000000000008152600401610c5990613285565b60405180910390fd5b80915050919050565b6000600854905090565b60008073ffffffffffffffffffffffffffffffffffffffff168273ffffffffffffffffffffffffffffffffffffffff161415610ce6576040517f08c379a0000000000000000000000000000000000000000000000000000000008152600401610cdd90613205565b60405180910390fd5b600360008373ffffffffffffffffffffffffffffffffffffffff1673ffffffffffffffffffffffffffffffffffffffff168152602001908152602001600020549050919050565b610d35611a7d565b610d3f6000611b38565b565b60007f0000000000000000000000000000000000000000000000000000000000000000905090565b6000600760009054906101000a900473ffffffffffffffffffffffffffffffffffffffff16905090565b606060018054610da29061359e565b80601f0160208091040260200160405190810160405280929190818152602001828054610dce9061359e565b8015610e1b5780601f10610df057610100808354040283529160200191610e1b565b820191906000526020600020905b815481529060010190602001808311610dfe57829003601f168201915b5050505050905090565b610e37610e30611493565b8383611bfe565b5050565b600b6020528060005260406000206000915054906101000a900473ffffffffffffffffffffffffffffffffffffffff1681565b600080600090506000610e7f610bb9565b905060005b6003811015610f0257828510158015610eb35750818160038110610eab57610eaa613737565b5b602002015185105b15610ed557806002811115610ecb57610eca6136d9565b5b9350505050610f35565b818160038110610ee857610ee7613737565b5b602002015192508080610efa90613601565b915050610e84565b506040517f12806c9d00000000000000000000000000000000000000000000000000000000815260040160405180910390fd5b919050565b60007f0000000000000000000000000000000000000000000000000000000000000000341015610f96576040517fb90f491000000000000000000000000000000000000000000000000000000000815260040160405180910390fd5b7f000000000000000000000000000000000000000000000000000000000000000073ffffffffffffffffffffffffffffffffffffffff16635d3b1d307f00000000000000000000000000000000000000000000000000000000000000007f000000000000000000000000000000000000000000000000000000000000000060037f000000000000000000000000000000000000000000000000000000000000000060016040518663ffffffff1660e01b815260040161105995949392919061306c565b602060405180830381600087803b15801561107357600080fd5b505af1158015611087573d6000803e3d6000fd5b505050506040513d601f19601f820116820180604052508101906110ab9190612b3e565b905033600b600083815260200190815260200160002060006101000a81548173ffffffffffffffffffffffffffffffffffffffff021916908373ffffffffffffffffffffffffffffffffffffffff160217905550807ff873236e6cc0ecc5be1a9a35c95ee5b8d1ac4cc7bfef0cc5060391d6cc98e26b3360405161112f9190612fa6565b60405180910390a290565b61114b611145611493565b836116ee565b61118a576040517f08c379a000000000000000000000000000000000000000000000000000000000815260040161118190613125565b60405180910390fd5b61119684848484611d6b565b50505050565b60606111a782611448565b60006006600084815260200190815260200160002080546111c79061359e565b80601f01602080910402602001604051908101604052809291908181526020018280546111f39061359e565b80156112405780601f1061121557610100808354040283529160200191611240565b820191906000526020600020905b81548152906001019060200180831161122357829003601f168201915b505050505090506000611251611dc7565b90506000815114156112675781925050506112aa565b60008251111561129c578082604051602001611284929190612f6d565b604051602081830303815290604052925050506112aa565b6112a584611dde565b925050505b919050565b6000600560008473ffffffffffffffffffffffffffffffffffffffff1673ffffffffffffffffffffffffffffffffffffffff16815260200190815260200160002060008373ffffffffffffffffffffffffffffffffffffffff1673ffffffffffffffffffffffffffffffffffffffff16815260200190815260200160002060009054906101000a900460ff16905092915050565b6000600a60009054906101000a900460ff16905090565b611362611a7d565b600073ffffffffffffffffffffffffffffffffffffffff168173ffffffffffffffffffffffffffffffffffffffff1614156113d2576040517f08c379a00000000000000000000000000000000000000000000000000000000081526004016113c990613165565b60405180910390fd5b6113db81611b38565b50565b60007f01ffc9a7000000000000000000000000000000000000000000000000000000007bffffffffffffffffffffffffffffffffffffffffffffffffffffffff1916827bffffffffffffffffffffffffffffffffffffffffffffffffffffffff1916149050919050565b61145181611e46565b611490576040517f08c379a000000000000000000000000000000000000000000000000000000000815260040161148790613285565b60405180910390fd5b50565b600033905090565b816004600083815260200190815260200160002060006101000a81548173ffffffffffffffffffffffffffffffffffffffff021916908373ffffffffffffffffffffffffffffffffffffffff160217905550808273ffffffffffffffffffffffffffffffffffffffff1661150e83610be4565b73ffffffffffffffffffffffffffffffffffffffff167f8c5be1e5ebec7d5bd14f71427d1e84f3dd0314c0f7b2291e5b200ac8c7c3b92560405160405180910390a45050565b6000600b600084815260200190815260200160002060009054906101000a900473ffffffffffffffffffffffffffffffffffffffff1690506000600854905060016008546115a291906133fd565b60088190555060006064846000815181106115c0576115bf613737565b5b60200260200101516115d2919061364a565b905060006115df82610e6e565b90506115eb8484611e87565b6116ad836009836002811115611604576116036136d9565b5b8154811061161557611614613737565b5b90600052602060002001805461162a9061359e565b80601f01602080910402602001604051908101604052809291908181526020018280546116569061359e565b80156116a35780601f10611678576101008083540402835291602001916116a3565b820191906000526020600020905b81548152906001019060200180831161168657829003601f168201915b5050505050611ea5565b7f8a269f26b688e110e9cbd887d163dab35cae678fa353a0292de532c0cac1ecdc81856040516116de9291906130da565b60405180910390a1505050505050565b6000806116fa83610be4565b90508073ffffffffffffffffffffffffffffffffffffffff168473ffffffffffffffffffffffffffffffffffffffff16148061173c575061173b81856112af565b5b8061177a57508373ffffffffffffffffffffffffffffffffffffffff16611762846107b7565b73ffffffffffffffffffffffffffffffffffffffff16145b91505092915050565b8273ffffffffffffffffffffffffffffffffffffffff166117a382610be4565b73ffffffffffffffffffffffffffffffffffffffff16146117f9576040517f08c379a00000000000000000000000000000000000000000000000000000000081526004016117f090613185565b60405180910390fd5b600073ffffffffffffffffffffffffffffffffffffffff168273ffffffffffffffffffffffffffffffffffffffff161415611869576040517f08c379a0000000000000000000000000000000000000000000000000000000008152600401611860906131c5565b60405180910390fd5b6118768383836001611f19565b8273ffffffffffffffffffffffffffffffffffffffff1661189682610be4565b73ffffffffffffffffffffffffffffffffffffffff16146118ec576040517f08c379a00000000000000000000000000000000000000000000000000000000081526004016118e390613185565b60405180910390fd5b6004600082815260200190815260200160002060006101000a81549073ffffffffffffffffffffffffffffffffffffffff02191690556001600360008573ffffffffffffffffffffffffffffffffffffffff1673ffffffffffffffffffffffffffffffffffffffff168152602001908152602001600020600082825403925050819055506001600360008473ffffffffffffffffffffffffffffffffffffffff1673ffffffffffffffffffffffffffffffffffffffff16815260200190815260200160002060008282540192505081905550816002600083815260200190815260200160002060006101000a81548173ffffffffffffffffffffffffffffffffffffffff021916908373ffffffffffffffffffffffffffffffffffffffff160217905550808273ffffffffffffffffffffffffffffffffffffffff168473ffffffffffffffffffffffffffffffffffffffff167fddf252ad1be2c89b69c2b068fc378daa952ba7f163c4a11628f55a4df523b3ef60405160405180910390a4611a78838383600161203f565b505050565b611a85611493565b73ffffffffffffffffffffffffffffffffffffffff16611aa3610d69565b73ffffffffffffffffffffffffffffffffffffffff1614611af9576040517f08c379a0000000000000000000000000000000000000000000000000000000008152600401611af090613265565b60405180910390fd5b565b60006002600083815260200190815260200160002060009054906101000a900473ffffffffffffffffffffffffffffffffffffffff169050919050565b6000600760009054906101000a900473ffffffffffffffffffffffffffffffffffffffff16905081600760006101000a81548173ffffffffffffffffffffffffffffffffffffffff021916908373ffffffffffffffffffffffffffffffffffffffff1602179055508173ffffffffffffffffffffffffffffffffffffffff168173ffffffffffffffffffffffffffffffffffffffff167f8be0079c531659141344cd1fd0a4f28419497f9722a3daafe3b4186f6b6457e060405160405180910390a35050565b8173ffffffffffffffffffffffffffffffffffffffff168373ffffffffffffffffffffffffffffffffffffffff161415611c6d576040517f08c379a0000000000000000000000000000000000000000000000000000000008152600401611c64906131e5565b60405180910390fd5b80600560008573ffffffffffffffffffffffffffffffffffffffff1673ffffffffffffffffffffffffffffffffffffffff16815260200190815260200160002060008473ffffffffffffffffffffffffffffffffffffffff1673ffffffffffffffffffffffffffffffffffffffff16815260200190815260200160002060006101000a81548160ff0219169083151502179055508173ffffffffffffffffffffffffffffffffffffffff168373ffffffffffffffffffffffffffffffffffffffff167f17307eab39ab6107e8899845ad3d59bd9653f200f220920489ca2b5937696c3183604051611d5e9190613051565b60405180910390a3505050565b611d76848484611783565b611d8284848484612045565b611dc1576040517f08c379a0000000000000000000000000000000000000000000000000000000008152600401611db890613145565b60405180910390fd5b50505050565b606060405180602001604052806000815250905090565b6060611de982611448565b6000611df3611dc7565b90506000815111611e135760405180602001604052806000815250611e3e565b80611e1d846121dc565b604051602001611e2e929190612f6d565b6040516020818303038152906040525b915050919050565b60008073ffffffffffffffffffffffffffffffffffffffff16611e6883611afb565b73ffffffffffffffffffffffffffffffffffffffff1614159050919050565b611ea18282604051806020016040528060008152506122b4565b5050565b611eae82611e46565b611eed576040517f08c379a0000000000000000000000000000000000000000000000000000000008152600401611ee490613225565b60405180910390fd5b80600660008481526020019081526020016000209080519060200190611f149291906126c5565b505050565b600181111561203957600073ffffffffffffffffffffffffffffffffffffffff168473ffffffffffffffffffffffffffffffffffffffff1614611fad5780600360008673ffffffffffffffffffffffffffffffffffffffff1673ffffffffffffffffffffffffffffffffffffffff1681526020019081526020016000206000828254611fa59190613453565b925050819055505b600073ffffffffffffffffffffffffffffffffffffffff168373ffffffffffffffffffffffffffffffffffffffff16146120385780600360008573ffffffffffffffffffffffffffffffffffffffff1673ffffffffffffffffffffffffffffffffffffffff168152602001908152602001600020600082825461203091906133fd565b925050819055505b5b50505050565b50505050565b60006120668473ffffffffffffffffffffffffffffffffffffffff1661230f565b156121cf578373ffffffffffffffffffffffffffffffffffffffff1663150b7a0261208f611493565b8786866040518563ffffffff1660e01b81526004016120b19493929190612fea565b602060405180830381600087803b1580156120cb57600080fd5b505af19250505080156120fc57506040513d601f19601f820116820180604052508101906120f99190612ae4565b60015b61217f573d806000811461212c576040519150601f19603f3d011682016040523d82523d6000602084013e612131565b606091505b50600081511415612177576040517f08c379a000000000000000000000000000000000000000000000000000000000815260040161216e90613145565b60405180910390fd5b805181602001fd5b63150b7a0260e01b7bffffffffffffffffffffffffffffffffffffffffffffffffffffffff1916817bffffffffffffffffffffffffffffffffffffffffffffffffffffffff1916149150506121d4565b600190505b949350505050565b6060600060016121eb84612332565b01905060008167ffffffffffffffff81111561220a57612209613766565b5b6040519080825280601f01601f19166020018201604052801561223c5781602001600182028036833780820191505090505b509050600082602001820190505b6001156122a9578080600190039150507f3031323334353637383961626364656600000000000000000000000000000000600a86061a8153600a8581612293576122926136aa565b5b04945060008514156122a4576122a9565b61224a565b819350505050919050565b6122be8383612485565b6122cb6000848484612045565b61230a576040517f08c379a000000000000000000000000000000000000000000000000000000000815260040161230190613145565b60405180910390fd5b505050565b6000808273ffffffffffffffffffffffffffffffffffffffff163b119050919050565b600080600090507a184f03e93ff9f4daa797ed6e38ed64bf6a1f0100000000000000008310612390577a184f03e93ff9f4daa797ed6e38ed64bf6a1f0100000000000000008381612386576123856136aa565b5b0492506040810190505b6d04ee2d6d415b85acef810000000083106123cd576d04ee2d6d415b85acef810000000083816123c3576123c26136aa565b5b0492506020810190505b662386f26fc1000083106123fc57662386f26fc1000083816123f2576123f16136aa565b5b0492506010810190505b6305f5e1008310612425576305f5e100838161241b5761241a6136aa565b5b0492506008810190505b612710831061244a5761271083816124405761243f6136aa565b5b0492506004810190505b6064831061246d5760648381612463576124626136aa565b5b0492506002810190505b600a831061247c576001810190505b80915050919050565b600073ffffffffffffffffffffffffffffffffffffffff168273ffffffffffffffffffffffffffffffffffffffff1614156124f5576040517f08c379a00000000000000000000000000000000000000000000000000000000081526004016124ec90613245565b60405180910390fd5b6124fe81611e46565b1561253e576040517f08c379a0000000000000000000000000000000000000000000000000000000008152600401612535906131a5565b60405180910390fd5b61254c600083836001611f19565b61255581611e46565b15612595576040517f08c379a000000000000000000000000000000000000000000000000000000000815260040161258c906131a5565b60405180910390fd5b6001600360008473ffffffffffffffffffffffffffffffffffffffff1673ffffffffffffffffffffffffffffffffffffffff16815260200190815260200160002060008282540192505081905550816002600083815260200190815260200160002060006101000a81548173ffffffffffffffffffffffffffffffffffffffff021916908373ffffffffffffffffffffffffffffffffffffffff160217905550808273ffffffffffffffffffffffffffffffffffffffff16600073ffffffffffffffffffffffffffffffffffffffff167fddf252ad1be2c89b69c2b068fc378daa952ba7f163c4a11628f55a4df523b3ef60405160405180910390a461269f60008383600161203f565b5050565b6040518060600160405280600390602082028036833780820191505090505090565b8280546126d19061359e565b90600052602060002090601f0160209004810192826126f3576000855561273a565b82601f1061270c57805160ff191683800117855561273a565b8280016001018555821561273a579182015b8281111561273957825182559160200191906001019061271e565b5b509050612747919061274b565b5090565b5b8082111561276457600081600090555060010161274c565b5090565b600061277b61277684613325565b613300565b9050808382526020820190508285602086028201111561279e5761279d61379a565b5b60005b858110156127ce57816127b488826128ca565b8452602084019350602083019250506001810190506127a1565b5050509392505050565b60006127eb6127e684613351565b613300565b9050828152602081018484840111156128075761280661379f565b5b61281284828561355c565b509392505050565b60008135905061282981613b6a565b92915050565b600082601f83011261284457612843613795565b5b8135612854848260208601612768565b91505092915050565b60008135905061286c81613b81565b92915050565b60008135905061288181613b98565b92915050565b60008151905061289681613b98565b92915050565b600082601f8301126128b1576128b0613795565b5b81356128c18482602086016127d8565b91505092915050565b6000813590506128d981613baf565b92915050565b6000815190506128ee81613baf565b92915050565b60006020828403121561290a576129096137a9565b5b60006129188482850161281a565b91505092915050565b60008060408385031215612938576129376137a9565b5b60006129468582860161281a565b92505060206129578582860161281a565b9150509250929050565b60008060006060848603121561297a576129796137a9565b5b60006129888682870161281a565b93505060206129998682870161281a565b92505060406129aa868287016128ca565b9150509250925092565b600080600080608085870312156129ce576129cd6137a9565b5b60006129dc8782880161281a565b94505060206129ed8782880161281a565b93505060406129fe878288016128ca565b925050606085013567ffffffffffffffff811115612a1f57612a1e6137a4565b5b612a2b8782880161289c565b91505092959194509250565b60008060408385031215612a4e57612a4d6137a9565b5b6000612a5c8582860161281a565b9250506020612a6d8582860161285d565b9150509250929050565b60008060408385031215612a8e57612a8d6137a9565b5b6000612a9c8582860161281a565b9250506020612aad858286016128ca565b9150509250929050565b600060208284031215612acd57612acc6137a9565b5b6000612adb84828501612872565b91505092915050565b600060208284031215612afa57612af96137a9565b5b6000612b0884828501612887565b91505092915050565b600060208284031215612b2757612b266137a9565b5b6000612b35848285016128ca565b91505092915050565b600060208284031215612b5457612b536137a9565b5b6000612b62848285016128df565b91505092915050565b60008060408385031215612b8257612b816137a9565b5b6000612b90858286016128ca565b925050602083013567ffffffffffffffff811115612bb157612bb06137a4565b5b612bbd8582860161282f565b9150509250929050565b6000612bd38383612f31565b60208301905092915050565b612be881613487565b82525050565b612bf78161338c565b612c0181846133ba565b9250612c0c82613382565b8060005b83811015612c3d578151612c248782612bc7565b9650612c2f836133ad565b925050600181019050612c10565b505050505050565b612c4e81613499565b82525050565b612c5d816134a5565b82525050565b6000612c6e82613397565b612c7881856133c5565b9350612c8881856020860161356b565b612c91816137ae565b840191505092915050565b612ca58161354a565b82525050565b6000612cb6826133a2565b612cc081856133e1565b9350612cd081856020860161356b565b612cd9816137ae565b840191505092915050565b6000612cef826133a2565b612cf981856133f2565b9350612d0981856020860161356b565b80840191505092915050565b6000612d22602d836133e1565b9150612d2d826137bf565b604082019050919050565b6000612d456032836133e1565b9150612d508261380e565b604082019050919050565b6000612d686026836133e1565b9150612d738261385d565b604082019050919050565b6000612d8b6025836133e1565b9150612d96826138ac565b604082019050919050565b6000612dae601c836133e1565b9150612db9826138fb565b602082019050919050565b6000612dd16024836133e1565b9150612ddc82613924565b604082019050919050565b6000612df46019836133e1565b9150612dff82613973565b602082019050919050565b6000612e176029836133e1565b9150612e228261399c565b604082019050919050565b6000612e3a602e836133e1565b9150612e45826139eb565b604082019050919050565b6000612e5d6020836133e1565b9150612e6882613a3a565b602082019050919050565b6000612e806020836133e1565b9150612e8b82613a63565b602082019050919050565b6000612ea36018836133e1565b9150612eae82613a8c565b602082019050919050565b6000612ec66021836133e1565b9150612ed182613ab5565b604082019050919050565b6000612ee96000836133d6565b9150612ef482613b04565b600082019050919050565b6000612f0c603d836133e1565b9150612f1782613b07565b604082019050919050565b612f2b816134ee565b82525050565b612f3a8161351c565b82525050565b612f498161351c565b82525050565b612f5881613526565b82525050565b612f6781613536565b82525050565b6000612f798285612ce4565b9150612f858284612ce4565b91508190509392505050565b6000612f9c82612edc565b9150819050919050565b6000602082019050612fbb6000830184612bdf565b92915050565b6000604082019050612fd66000830185612bdf565b612fe36020830184612bdf565b9392505050565b6000608082019050612fff6000830187612bdf565b61300c6020830186612bdf565b6130196040830185612f40565b818103606083015261302b8184612c63565b905095945050505050565b600060608201905061304b6000830184612bee565b92915050565b60006020820190506130666000830184612c45565b92915050565b600060a0820190506130816000830188612c54565b61308e6020830187612f5e565b61309b6040830186612f22565b6130a86060830185612f4f565b6130b56080830184612f4f565b9695505050505050565b60006020820190506130d46000830184612c9c565b92915050565b60006040820190506130ef6000830185612c9c565b6130fc6020830184612bdf565b9392505050565b6000602082019050818103600083015261311d8184612cab565b905092915050565b6000602082019050818103600083015261313e81612d15565b9050919050565b6000602082019050818103600083015261315e81612d38565b9050919050565b6000602082019050818103600083015261317e81612d5b565b9050919050565b6000602082019050818103600083015261319e81612d7e565b9050919050565b600060208201905081810360008301526131be81612da1565b9050919050565b600060208201905081810360008301526131de81612dc4565b9050919050565b600060208201905081810360008301526131fe81612de7565b9050919050565b6000602082019050818103600083015261321e81612e0a565b9050919050565b6000602082019050818103600083015261323e81612e2d565b9050919050565b6000602082019050818103600083015261325e81612e50565b9050919050565b6000602082019050818103600083015261327e81612e73565b9050919050565b6000602082019050818103600083015261329e81612e96565b9050919050565b600060208201905081810360008301526132be81612eb9565b9050919050565b600060208201905081810360008301526132de81612eff565b9050919050565b60006020820190506132fa6000830184612f40565b92915050565b600061330a61331b565b905061331682826135d0565b919050565b6000604051905090565b600067ffffffffffffffff8211156133405761333f613766565b5b602082029050602081019050919050565b600067ffffffffffffffff82111561336c5761336b613766565b5b613375826137ae565b9050602081019050919050565b6000819050919050565b600060039050919050565b600081519050919050565b600081519050919050565b6000602082019050919050565b600081905092915050565b600082825260208201905092915050565b600081905092915050565b600082825260208201905092915050565b600081905092915050565b60006134088261351c565b91506134138361351c565b9250827fffffffffffffffffffffffffffffffffffffffffffffffffffffffffffffffff038211156134485761344761367b565b5b828201905092915050565b600061345e8261351c565b91506134698361351c565b92508282101561347c5761347b61367b565b5b828203905092915050565b6000613492826134fc565b9050919050565b60008115159050919050565b6000819050919050565b60007fffffffff0000000000000000000000000000000000000000000000000000000082169050919050565b60008190506134e982613b56565b919050565b600061ffff82169050919050565b600073ffffffffffffffffffffffffffffffffffffffff82169050919050565b6000819050919050565b600063ffffffff82169050919050565b600067ffffffffffffffff82169050919050565b6000613555826134db565b9050919050565b82818337600083830152505050565b60005b8381101561358957808201518184015260208101905061356e565b83811115613598576000848401525b50505050565b600060028204905060018216806135b657607f821691505b602082108114156135ca576135c9613708565b5b50919050565b6135d9826137ae565b810181811067ffffffffffffffff821117156135f8576135f7613766565b5b80604052505050565b600061360c8261351c565b91507fffffffffffffffffffffffffffffffffffffffffffffffffffffffffffffffff82141561363f5761363e61367b565b5b600182019050919050565b60006136558261351c565b91506136608361351c565b9250826136705761366f6136aa565b5b828206905092915050565b7f4e487b7100000000000000000000000000000000000000000000000000000000600052601160045260246000fd5b7f4e487b7100000000000000000000000000000000000000000000000000000000600052601260045260246000fd5b7f4e487b7100000000000000000000000000000000000000000000000000000000600052602160045260246000fd5b7f4e487b7100000000000000000000000000000000000000000000000000000000600052602260045260246000fd5b7f4e487b7100000000000000000000000000000000000000000000000000000000600052603260045260246000fd5b7f4e487b7100000000000000000000000000000000000000000000000000000000600052604160045260246000fd5b600080fd5b600080fd5b600080fd5b600080fd5b600080fd5b6000601f19601f8301169050919050565b7f4552433732313a2063616c6c6572206973206e6f7420746f6b656e206f776e6560008201527f72206f7220617070726f76656400000000000000000000000000000000000000602082015250565b7f4552433732313a207472616e7366657220746f206e6f6e20455243373231526560008201527f63656976657220696d706c656d656e7465720000000000000000000000000000602082015250565b7f4f776e61626c653a206e6577206f776e657220697320746865207a65726f206160008201527f6464726573730000000000000000000000000000000000000000000000000000602082015250565b7f4552433732313a207472616e736665722066726f6d20696e636f72726563742060008201527f6f776e6572000000000000000000000000000000000000000000000000000000602082015250565b7f4552433732313a20746f6b656e20616c7265616479206d696e74656400000000600082015250565b7f4552433732313a207472616e7366657220746f20746865207a65726f2061646460008201527f7265737300000000000000000000000000000000000000000000000000000000602082015250565b7f4552433732313a20617070726f766520746f2063616c6c657200000000000000600082015250565b7f4552433732313a2061646472657373207a65726f206973206e6f74206120766160008201527f6c6964206f776e65720000000000000000000000000000000000000000000000602082015250565b7f45524337323155524953746f726167653a2055524920736574206f66206e6f6e60008201527f6578697374656e7420746f6b656e000000000000000000000000000000000000602082015250565b7f4552433732313a206d696e7420746f20746865207a65726f2061646472657373600082015250565b7f4f776e61626c653a2063616c6c6572206973206e6f7420746865206f776e6572600082015250565b7f4552433732313a20696e76616c696420746f6b656e2049440000000000000000600082015250565b7f4552433732313a20617070726f76616c20746f2063757272656e74206f776e6560008201527f7200000000000000000000000000000000000000000000000000000000000000602082015250565b50565b7f4552433732313a20617070726f76652063616c6c6572206973206e6f7420746f60008201527f6b656e206f776e6572206f7220617070726f76656420666f7220616c6c000000602082015250565b60038110613b6757613b666136d9565b5b50565b613b7381613487565b8114613b7e57600080fd5b50565b613b8a81613499565b8114613b9557600080fd5b50565b613ba1816134af565b8114613bac57600080fd5b50565b613bb88161351c565b8114613bc357600080fd5b5056fea26469706673582212209e693776351e27c0a148265e91a8d9b999588a435fe2068a8a9034b59366762e64736f6c63430008070033",
  "linkReferences": {},
  "deployedLinkReferences": {}
}