{
  "_format": "hh-sol-artifact-1",
  "contractName": "BasicNFT",
  "sourceName": "contracts/BasicNFT.sol",
  "abi": [
    {
      "inputs": [],
      "stateMutability": "nonpayable",
      "type": "constructor"
    },
    {
      "anonymous": false,
      "inputs": [
        {
          "indexed": true,
          "internalType": "address",
          "name": "owner",
          "type": "address"
        },
        {
          "indexed": true,
          "internalType": "address",
          "name": "approved",
          "type": "address"
        },
        {
          "indexed": true,
          "internalType": "uint256",
          "name": "tokenId",
          "type": "uint256"
        }
      ],
      "name": "Approval",
      "type": "event"
    },
    {
      "anonymous": false,
      "inputs": [
        {
          "indexed": true,
          "internalType": "address",
          "name": "owner",
          "type": "address"
        },
        {
          "indexed": true,
          "internalType": "address",
          "name": "operator",
          "type": "address"
        },
        {
          "indexed": false,
          "internalType": "bool",
          "name": "approved",
          "type": "bool"
        }
      ],
      "name": "ApprovalForAll",
      "type": "event"
    },
    {
      "anonymous": false,
      "inputs": [
        {
          "indexed": true,
          "internalType": "address",
          "name": "from",
          "type": "address"
        },
        {
          "indexed": true,
          "internalType": "address",
          "name": "to",
          "type": "address"
        },
        {
          "indexed": true,
          "internalType": "uint256",
          "name": "tokenId",
          "type": "uint256"
        }
      ],
      "name": "Transfer",
      "type": "event"
    },
    {
      "inputs": [],
      "name": "TOKEN_URI",
      "outputs": [
        {
          "internalType": "string",
          "name": "",
          "type": "string"
        }
      ],
      "stateMutability": "view",
      "type": "function"
    },
    {
      "inputs": [
        {
          "internalType": "address",
          "name": "to",
          "type": "address"
        },
        {
          "internalType": "uint256",
          "name": "tokenId",
          "type": "uint256"
        }
      ],
      "name": "approve",
      "outputs": [],
      "stateMutability": "nonpayable",
      "type": "function"
    },
    {
      "inputs": [
        {
          "internalType": "address",
          "name": "owner",
          "type": "address"
        }
      ],
      "name": "balanceOf",
      "outputs": [
        {
          "internalType": "uint256",
          "name": "",
          "type": "uint256"
        }
      ],
      "stateMutability": "view",
      "type": "function"
    },
    {
      "inputs": [
        {
          "internalType": "uint256",
          "name": "tokenId",
          "type": "uint256"
        }
      ],
      "name": "getApproved",
      "outputs": [
        {
          "internalType": "address",
          "name": "",
          "type": "address"
        }
      ],
      "stateMutability": "view",
      "type": "function"
    },
    {
      "inputs": [],
      "name": "gettokencounter",
      "outputs": [
        {
          "internalType": "uint256",
          "name": "",
          "type": "uint256"
        }
      ],
      "stateMutability": "view",
      "type": "function"
    },
    {
      "inputs": [
        {
          "internalType": "address",
          "name": "owner",
          "type": "address"
        },
        {
          "internalType": "address",
          "name": "operator",
          "type": "address"
        }
      ],
      "name": "isApprovedForAll",
      "outputs": [
        {
          "internalType": "bool",
          "name": "",
          "type": "bool"
        }
      ],
      "stateMutability": "view",
      "type": "function"
    },
    {
      "inputs": [],
      "name": "mintNft",
      "outputs": [
        {
          "internalType": "uint256",
          "name": "",
          "type": "uint256"
        }
      ],
      "stateMutability": "nonpayable",
      "type": "function"
    },
    {
      "inputs": [],
      "name": "name",
      "outputs": [
        {
          "internalType": "string",
          "name": "",
          "type": "string"
        }
      ],
      "stateMutability": "view",
      "type": "function"
    },
    {
      "inputs": [
        {
          "internalType": "uint256",
          "name": "tokenId",
          "type": "uint256"
        }
      ],
      "name": "ownerOf",
      "outputs": [
        {
          "internalType": "address",
          "name": "",
          "type": "address"
        }
      ],
      "stateMutability": "view",
      "type": "function"
    },
    {
      "inputs": [
        {
          "internalType": "address",
          "name": "from",
          "type": "address"
        },
        {
          "internalType": "address",
          "name": "to",
          "type": "address"
        },
        {
          "internalType": "uint256",
          "name": "tokenId",
          "type": "uint256"
        }
      ],
      "name": "safeTransferFrom",
      "outputs": [],
      "stateMutability": "nonpayable",
      "type": "function"
    },
    {
      "inputs": [
        {
          "internalType": "address",
          "name": "from",
          "type": "address"
        },
        {
          "internalType": "address",
          "name": "to",
          "type": "address"
        },
        {
          "internalType": "uint256",
          "name": "tokenId",
          "type": "uint256"
        },
        {
          "internalType": "bytes",
          "name": "data",
          "type": "bytes"
        }
      ],
      "name": "safeTransferFrom",
      "outputs": [],
      "stateMutability": "nonpayable",
      "type": "function"
    },
    {
      "inputs": [
        {
          "internalType": "address",
          "name": "operator",
          "type": "address"
        },
        {
          "internalType": "bool",
          "name": "approved",
          "type": "bool"
        }
      ],
      "name": "setApprovalForAll",
      "outputs": [],
      "stateMutability": "nonpayable",
      "type": "function"
    },
    {
      "inputs": [
        {
          "internalType": "bytes4",
          "name": "interfaceId",
          "type": "bytes4"
        }
      ],
      "name": "supportsInterface",
      "outputs": [
        {
          "internalType": "bool",
          "name": "",
          "type": "bool"
        }
      ],
      "stateMutability": "view",
      "type": "function"
    },
    {
      "inputs": [],
      "name": "symbol",
      "outputs": [
        {
          "internalType": "string",
          "name": "",
          "type": "string"
        }
      ],
      "stateMutability": "view",
      "type": "function"
    },
    {
      "inputs": [
        {
          "internalType": "uint256",
          "name": "",
          "type": "uint256"
        }
      ],
      "name": "tokenURI",
      "outputs": [
        {
          "internalType": "string",
          "name": "",
          "type": "string"
        }
      ],
      "stateMutability": "view",
      "type": "function"
    },
    {
      "inputs": [
        {
          "internalType": "address",
          "name": "from",
          "type": "address"
        },
        {
          "internalType": "address",
          "name": "to",
          "type": "address"
        },
        {
          "internalType": "uint256",
          "name": "tokenId",
          "type": "uint256"
        }
      ],
      "name": "transferFrom",
      "outputs": [],
      "stateMutability": "nonpayable",
      "type": "function"
    }
  ],
  "bytecode": "0x60806040523480156200001157600080fd5b506040518060400160405280600381526020017f6c797000000000000000000000000000000000000000000000000000000000008152506040518060400160405280600381526020017f446f670000000000000000000000000000000000000000000000000000000000815250816000908051906020019062000096929190620000c0565b508060019080519060200190620000af929190620000c0565b5050506000600681905550620001d5565b828054620000ce9062000170565b90600052602060002090601f016020900481019282620000f257600085556200013e565b82601f106200010d57805160ff19168380011785556200013e565b828001600101855582156200013e579182015b828111156200013d57825182559160200191906001019062000120565b5b5090506200014d919062000151565b5090565b5b808211156200016c57600081600090555060010162000152565b5090565b600060028204905060018216806200018957607f821691505b60208210811415620001a0576200019f620001a6565b5b50919050565b7f4e487b7100000000000000000000000000000000000000000000000000000000600052602260045260246000fd5b6124f980620001e56000396000f3fe608060405234801561001057600080fd5b50600436106101005760003560e01c806378ce903511610097578063c2229fea11610066578063c2229fea146102ab578063c87b56dd146102c9578063e985e9c5146102f9578063f7668f6b1461032957610100565b806378ce90351461023757806395d89b4114610255578063a22cb46514610273578063b88d4fde1461028f57610100565b806323b872dd116100d357806323b872dd1461019f57806342842e0e146101bb5780636352211e146101d757806370a082311461020757610100565b806301ffc9a71461010557806306fdde0314610135578063081812fc14610153578063095ea7b314610183575b600080fd5b61011f600480360381019061011a9190611951565b610347565b60405161012c9190611c5f565b60405180910390f35b61013d610429565b60405161014a9190611c7a565b60405180910390f35b61016d600480360381019061016891906119ab565b6104bb565b60405161017a9190611bf8565b60405180910390f35b61019d60048036038101906101989190611911565b610501565b005b6101b960048036038101906101b491906117fb565b610619565b005b6101d560048036038101906101d091906117fb565b610679565b005b6101f160048036038101906101ec91906119ab565b610699565b6040516101fe9190611bf8565b60405180910390f35b610221600480360381019061021c919061178e565b610720565b60405161022e9190611dfc565b60405180910390f35b61023f6107d8565b60405161024c9190611c7a565b60405180910390f35b61025d6107f4565b60405161026a9190611c7a565b60405180910390f35b61028d600480360381019061028891906118d1565b610886565b005b6102a960048036038101906102a4919061184e565b61089c565b005b6102b36108fe565b6040516102c09190611dfc565b60405180910390f35b6102e360048036038101906102de91906119ab565b61092c565b6040516102f09190611c7a565b60405180910390f35b610313600480360381019061030e91906117bb565b61094e565b6040516103209190611c5f565b60405180910390f35b6103316109e2565b60405161033e9190611dfc565b60405180910390f35b60007f80ac58cd000000000000000000000000000000000000000000000000000000007bffffffffffffffffffffffffffffffffffffffffffffffffffffffff1916827bffffffffffffffffffffffffffffffffffffffffffffffffffffffff1916148061041257507f5b5e139f000000000000000000000000000000000000000000000000000000007bffffffffffffffffffffffffffffffffffffffffffffffffffffffff1916827bffffffffffffffffffffffffffffffffffffffffffffffffffffffff1916145b806104225750610421826109ec565b5b9050919050565b60606000805461043890611fe5565b80601f016020809104026020016040519081016040528092919081815260200182805461046490611fe5565b80156104b15780601f10610486576101008083540402835291602001916104b1565b820191906000526020600020905b81548152906001019060200180831161049457829003601f168201915b5050505050905090565b60006104c682610a56565b6004600083815260200190815260200160002060009054906101000a900473ffffffffffffffffffffffffffffffffffffffff169050919050565b600061050c82610699565b90508073ffffffffffffffffffffffffffffffffffffffff168373ffffffffffffffffffffffffffffffffffffffff16141561057d576040517f08c379a000000000000000000000000000000000000000000000000000000000815260040161057490611dbc565b60405180910390fd5b8073ffffffffffffffffffffffffffffffffffffffff1661059c610aa1565b73ffffffffffffffffffffffffffffffffffffffff1614806105cb57506105ca816105c5610aa1565b61094e565b5b61060a576040517f08c379a000000000000000000000000000000000000000000000000000000000815260040161060190611ddc565b60405180910390fd5b6106148383610aa9565b505050565b61062a610624610aa1565b82610b62565b610669576040517f08c379a000000000000000000000000000000000000000000000000000000000815260040161066090611c9c565b60405180910390fd5b610674838383610bf7565b505050565b6106948383836040518060200160405280600081525061089c565b505050565b6000806106a583610ef1565b9050600073ffffffffffffffffffffffffffffffffffffffff168173ffffffffffffffffffffffffffffffffffffffff161415610717576040517f08c379a000000000000000000000000000000000000000000000000000000000815260040161070e90611d9c565b60405180910390fd5b80915050919050565b60008073ffffffffffffffffffffffffffffffffffffffff168273ffffffffffffffffffffffffffffffffffffffff161415610791576040517f08c379a000000000000000000000000000000000000000000000000000000000815260040161078890611d5c565b60405180910390fd5b600360008373ffffffffffffffffffffffffffffffffffffffff1673ffffffffffffffffffffffffffffffffffffffff168152602001908152602001600020549050919050565b60405180608001604052806057815260200161246d6057913981565b60606001805461080390611fe5565b80601f016020809104026020016040519081016040528092919081815260200182805461082f90611fe5565b801561087c5780601f106108515761010080835404028352916020019161087c565b820191906000526020600020905b81548152906001019060200180831161085f57829003601f168201915b5050505050905090565b610898610891610aa1565b8383610f2e565b5050565b6108ad6108a7610aa1565b83610b62565b6108ec576040517f08c379a00000000000000000000000000000000000000000000000000000000081526004016108e390611c9c565b60405180910390fd5b6108f88484848461109b565b50505050565b600061090c336006546110f7565b6006600081548092919061091f90612048565b9190505550600654905090565b606060405180608001604052806057815260200161246d605791399050919050565b6000600560008473ffffffffffffffffffffffffffffffffffffffff1673ffffffffffffffffffffffffffffffffffffffff16815260200190815260200160002060008373ffffffffffffffffffffffffffffffffffffffff1673ffffffffffffffffffffffffffffffffffffffff16815260200190815260200160002060009054906101000a900460ff16905092915050565b6000600654905090565b60007f01ffc9a7000000000000000000000000000000000000000000000000000000007bffffffffffffffffffffffffffffffffffffffffffffffffffffffff1916827bffffffffffffffffffffffffffffffffffffffffffffffffffffffff1916149050919050565b610a5f81611115565b610a9e576040517f08c379a0000000000000000000000000000000000000000000000000000000008152600401610a9590611d9c565b60405180910390fd5b50565b600033905090565b816004600083815260200190815260200160002060006101000a81548173ffffffffffffffffffffffffffffffffffffffff021916908373ffffffffffffffffffffffffffffffffffffffff160217905550808273ffffffffffffffffffffffffffffffffffffffff16610b1c83610699565b73ffffffffffffffffffffffffffffffffffffffff167f8c5be1e5ebec7d5bd14f71427d1e84f3dd0314c0f7b2291e5b200ac8c7c3b92560405160405180910390a45050565b600080610b6e83610699565b90508073ffffffffffffffffffffffffffffffffffffffff168473ffffffffffffffffffffffffffffffffffffffff161480610bb05750610baf818561094e565b5b80610bee57508373ffffffffffffffffffffffffffffffffffffffff16610bd6846104bb565b73ffffffffffffffffffffffffffffffffffffffff16145b91505092915050565b8273ffffffffffffffffffffffffffffffffffffffff16610c1782610699565b73ffffffffffffffffffffffffffffffffffffffff1614610c6d576040517f08c379a0000000000000000000000000000000000000000000000000000000008152600401610c6490611cdc565b60405180910390fd5b600073ffffffffffffffffffffffffffffffffffffffff168273ffffffffffffffffffffffffffffffffffffffff161415610cdd576040517f08c379a0000000000000000000000000000000000000000000000000000000008152600401610cd490611d1c565b60405180910390fd5b610cea8383836001611156565b8273ffffffffffffffffffffffffffffffffffffffff16610d0a82610699565b73ffffffffffffffffffffffffffffffffffffffff1614610d60576040517f08c379a0000000000000000000000000000000000000000000000000000000008152600401610d5790611cdc565b60405180910390fd5b6004600082815260200190815260200160002060006101000a81549073ffffffffffffffffffffffffffffffffffffffff02191690556001600360008573ffffffffffffffffffffffffffffffffffffffff1673ffffffffffffffffffffffffffffffffffffffff168152602001908152602001600020600082825403925050819055506001600360008473ffffffffffffffffffffffffffffffffffffffff1673ffffffffffffffffffffffffffffffffffffffff16815260200190815260200160002060008282540192505081905550816002600083815260200190815260200160002060006101000a81548173ffffffffffffffffffffffffffffffffffffffff021916908373ffffffffffffffffffffffffffffffffffffffff160217905550808273ffffffffffffffffffffffffffffffffffffffff168473ffffffffffffffffffffffffffffffffffffffff167fddf252ad1be2c89b69c2b068fc378daa952ba7f163c4a11628f55a4df523b3ef60405160405180910390a4610eec838383600161127c565b505050565b60006002600083815260200190815260200160002060009054906101000a900473ffffffffffffffffffffffffffffffffffffffff169050919050565b8173ffffffffffffffffffffffffffffffffffffffff168373ffffffffffffffffffffffffffffffffffffffff161415610f9d576040517f08c379a0000000000000000000000000000000000000000000000000000000008152600401610f9490611d3c565b60405180910390fd5b80600560008573ffffffffffffffffffffffffffffffffffffffff1673ffffffffffffffffffffffffffffffffffffffff16815260200190815260200160002060008473ffffffffffffffffffffffffffffffffffffffff1673ffffffffffffffffffffffffffffffffffffffff16815260200190815260200160002060006101000a81548160ff0219169083151502179055508173ffffffffffffffffffffffffffffffffffffffff168373ffffffffffffffffffffffffffffffffffffffff167f17307eab39ab6107e8899845ad3d59bd9653f200f220920489ca2b5937696c318360405161108e9190611c5f565b60405180910390a3505050565b6110a6848484610bf7565b6110b284848484611282565b6110f1576040517f08c379a00000000000000000000000000000000000000000000000000000000081526004016110e890611cbc565b60405180910390fd5b50505050565b611111828260405180602001604052806000815250611419565b5050565b60008073ffffffffffffffffffffffffffffffffffffffff1661113783610ef1565b73ffffffffffffffffffffffffffffffffffffffff1614159050919050565b600181111561127657600073ffffffffffffffffffffffffffffffffffffffff168473ffffffffffffffffffffffffffffffffffffffff16146111ea5780600360008673ffffffffffffffffffffffffffffffffffffffff1673ffffffffffffffffffffffffffffffffffffffff16815260200190815260200160002060008282546111e29190611efb565b925050819055505b600073ffffffffffffffffffffffffffffffffffffffff168373ffffffffffffffffffffffffffffffffffffffff16146112755780600360008573ffffffffffffffffffffffffffffffffffffffff1673ffffffffffffffffffffffffffffffffffffffff168152602001908152602001600020600082825461126d9190611ea5565b925050819055505b5b50505050565b50505050565b60006112a38473ffffffffffffffffffffffffffffffffffffffff16611474565b1561140c578373ffffffffffffffffffffffffffffffffffffffff1663150b7a026112cc610aa1565b8786866040518563ffffffff1660e01b81526004016112ee9493929190611c13565b602060405180830381600087803b15801561130857600080fd5b505af192505050801561133957506040513d601f19601f82011682018060405250810190611336919061197e565b60015b6113bc573d8060008114611369576040519150601f19603f3d011682016040523d82523d6000602084013e61136e565b606091505b506000815114156113b4576040517f08c379a00000000000000000000000000000000000000000000000000000000081526004016113ab90611cbc565b60405180910390fd5b805181602001fd5b63150b7a0260e01b7bffffffffffffffffffffffffffffffffffffffffffffffffffffffff1916817bffffffffffffffffffffffffffffffffffffffffffffffffffffffff191614915050611411565b600190505b949350505050565b6114238383611497565b6114306000848484611282565b61146f576040517f08c379a000000000000000000000000000000000000000000000000000000000815260040161146690611cbc565b60405180910390fd5b505050565b6000808273ffffffffffffffffffffffffffffffffffffffff163b119050919050565b600073ffffffffffffffffffffffffffffffffffffffff168273ffffffffffffffffffffffffffffffffffffffff161415611507576040517f08c379a00000000000000000000000000000000000000000000000000000000081526004016114fe90611d7c565b60405180910390fd5b61151081611115565b15611550576040517f08c379a000000000000000000000000000000000000000000000000000000000815260040161154790611cfc565b60405180910390fd5b61155e600083836001611156565b61156781611115565b156115a7576040517f08c379a000000000000000000000000000000000000000000000000000000000815260040161159e90611cfc565b60405180910390fd5b6001600360008473ffffffffffffffffffffffffffffffffffffffff1673ffffffffffffffffffffffffffffffffffffffff16815260200190815260200160002060008282540192505081905550816002600083815260200190815260200160002060006101000a81548173ffffffffffffffffffffffffffffffffffffffff021916908373ffffffffffffffffffffffffffffffffffffffff160217905550808273ffffffffffffffffffffffffffffffffffffffff16600073ffffffffffffffffffffffffffffffffffffffff167fddf252ad1be2c89b69c2b068fc378daa952ba7f163c4a11628f55a4df523b3ef60405160405180910390a46116b160008383600161127c565b5050565b60006116c86116c384611e3c565b611e17565b9050828152602081018484840111156116e4576116e3612123565b5b6116ef848285611fa3565b509392505050565b60008135905061170681612410565b92915050565b60008135905061171b81612427565b92915050565b6000813590506117308161243e565b92915050565b6000815190506117458161243e565b92915050565b600082601f8301126117605761175f61211e565b5b81356117708482602086016116b5565b91505092915050565b60008135905061178881612455565b92915050565b6000602082840312156117a4576117a361212d565b5b60006117b2848285016116f7565b91505092915050565b600080604083850312156117d2576117d161212d565b5b60006117e0858286016116f7565b92505060206117f1858286016116f7565b9150509250929050565b6000806000606084860312156118145761181361212d565b5b6000611822868287016116f7565b9350506020611833868287016116f7565b925050604061184486828701611779565b9150509250925092565b600080600080608085870312156118685761186761212d565b5b6000611876878288016116f7565b9450506020611887878288016116f7565b935050604061189887828801611779565b925050606085013567ffffffffffffffff8111156118b9576118b8612128565b5b6118c58782880161174b565b91505092959194509250565b600080604083850312156118e8576118e761212d565b5b60006118f6858286016116f7565b92505060206119078582860161170c565b9150509250929050565b600080604083850312156119285761192761212d565b5b6000611936858286016116f7565b925050602061194785828601611779565b9150509250929050565b6000602082840312156119675761196661212d565b5b600061197584828501611721565b91505092915050565b6000602082840312156119945761199361212d565b5b60006119a284828501611736565b91505092915050565b6000602082840312156119c1576119c061212d565b5b60006119cf84828501611779565b91505092915050565b6119e181611f2f565b82525050565b6119f081611f41565b82525050565b6000611a0182611e6d565b611a0b8185611e83565b9350611a1b818560208601611fb2565b611a2481612132565b840191505092915050565b6000611a3a82611e78565b611a448185611e94565b9350611a54818560208601611fb2565b611a5d81612132565b840191505092915050565b6000611a75602d83611e94565b9150611a8082612143565b604082019050919050565b6000611a98603283611e94565b9150611aa382612192565b604082019050919050565b6000611abb602583611e94565b9150611ac6826121e1565b604082019050919050565b6000611ade601c83611e94565b9150611ae982612230565b602082019050919050565b6000611b01602483611e94565b9150611b0c82612259565b604082019050919050565b6000611b24601983611e94565b9150611b2f826122a8565b602082019050919050565b6000611b47602983611e94565b9150611b52826122d1565b604082019050919050565b6000611b6a602083611e94565b9150611b7582612320565b602082019050919050565b6000611b8d601883611e94565b9150611b9882612349565b602082019050919050565b6000611bb0602183611e94565b9150611bbb82612372565b604082019050919050565b6000611bd3603d83611e94565b9150611bde826123c1565b604082019050919050565b611bf281611f99565b82525050565b6000602082019050611c0d60008301846119d8565b92915050565b6000608082019050611c2860008301876119d8565b611c3560208301866119d8565b611c426040830185611be9565b8181036060830152611c5481846119f6565b905095945050505050565b6000602082019050611c7460008301846119e7565b92915050565b60006020820190508181036000830152611c948184611a2f565b905092915050565b60006020820190508181036000830152611cb581611a68565b9050919050565b60006020820190508181036000830152611cd581611a8b565b9050919050565b60006020820190508181036000830152611cf581611aae565b9050919050565b60006020820190508181036000830152611d1581611ad1565b9050919050565b60006020820190508181036000830152611d3581611af4565b9050919050565b60006020820190508181036000830152611d5581611b17565b9050919050565b60006020820190508181036000830152611d7581611b3a565b9050919050565b60006020820190508181036000830152611d9581611b5d565b9050919050565b60006020820190508181036000830152611db581611b80565b9050919050565b60006020820190508181036000830152611dd581611ba3565b9050919050565b60006020820190508181036000830152611df581611bc6565b9050919050565b6000602082019050611e116000830184611be9565b92915050565b6000611e21611e32565b9050611e2d8282612017565b919050565b6000604051905090565b600067ffffffffffffffff821115611e5757611e566120ef565b5b611e6082612132565b9050602081019050919050565b600081519050919050565b600081519050919050565b600082825260208201905092915050565b600082825260208201905092915050565b6000611eb082611f99565b9150611ebb83611f99565b9250827fffffffffffffffffffffffffffffffffffffffffffffffffffffffffffffffff03821115611ef057611eef612091565b5b828201905092915050565b6000611f0682611f99565b9150611f1183611f99565b925082821015611f2457611f23612091565b5b828203905092915050565b6000611f3a82611f79565b9050919050565b60008115159050919050565b60007fffffffff0000000000000000000000000000000000000000000000000000000082169050919050565b600073ffffffffffffffffffffffffffffffffffffffff82169050919050565b6000819050919050565b82818337600083830152505050565b60005b83811015611fd0578082015181840152602081019050611fb5565b83811115611fdf576000848401525b50505050565b60006002820490506001821680611ffd57607f821691505b60208210811415612011576120106120c0565b5b50919050565b61202082612132565b810181811067ffffffffffffffff8211171561203f5761203e6120ef565b5b80604052505050565b600061205382611f99565b91507fffffffffffffffffffffffffffffffffffffffffffffffffffffffffffffffff82141561208657612085612091565b5b600182019050919050565b7f4e487b7100000000000000000000000000000000000000000000000000000000600052601160045260246000fd5b7f4e487b7100000000000000000000000000000000000000000000000000000000600052602260045260246000fd5b7f4e487b7100000000000000000000000000000000000000000000000000000000600052604160045260246000fd5b600080fd5b600080fd5b600080fd5b600080fd5b6000601f19601f8301169050919050565b7f4552433732313a2063616c6c6572206973206e6f7420746f6b656e206f776e6560008201527f72206f7220617070726f76656400000000000000000000000000000000000000602082015250565b7f4552433732313a207472616e7366657220746f206e6f6e20455243373231526560008201527f63656976657220696d706c656d656e7465720000000000000000000000000000602082015250565b7f4552433732313a207472616e736665722066726f6d20696e636f72726563742060008201527f6f776e6572000000000000000000000000000000000000000000000000000000602082015250565b7f4552433732313a20746f6b656e20616c7265616479206d696e74656400000000600082015250565b7f4552433732313a207472616e7366657220746f20746865207a65726f2061646460008201527f7265737300000000000000000000000000000000000000000000000000000000602082015250565b7f4552433732313a20617070726f766520746f2063616c6c657200000000000000600082015250565b7f4552433732313a2061646472657373207a65726f206973206e6f74206120766160008201527f6c6964206f776e65720000000000000000000000000000000000000000000000602082015250565b7f4552433732313a206d696e7420746f20746865207a65726f2061646472657373600082015250565b7f4552433732313a20696e76616c696420746f6b656e2049440000000000000000600082015250565b7f4552433732313a20617070726f76616c20746f2063757272656e74206f776e6560008201527f7200000000000000000000000000000000000000000000000000000000000000602082015250565b7f4552433732313a20617070726f76652063616c6c6572206973206e6f7420746f60008201527f6b656e206f776e6572206f7220617070726f76656420666f7220616c6c000000602082015250565b61241981611f2f565b811461242457600080fd5b50565b61243081611f41565b811461243b57600080fd5b50565b61244781611f4d565b811461245257600080fd5b50565b61245e81611f99565b811461246957600080fd5b5056fe697066733a2f2f62616679626569673337696f6972373673376d67356f6f6265746e636f6a636d3363336878617379643472766964346a71687934676b61686567342f3f66696c656e616d653d302d5055472e6a736f6ea26469706673582212204dc3c7fefb5b35253bd2ebb9459666b3af6d94e4a7393d0d041b53e035da242f64736f6c63430008070033",
  "linkReferences": {},
  "deployedLinkReferences": {}
}